:0300000002126485
:0C126400787FE4F6D8FD758120020DE2D1
:100B8D0057584A5F5043520054494D453D003A0075
:100B9D004E4F572054454D503D0041494D20544531
:100BAD004D503D002E00434F554E543D000000006A
:100BBD000000000000002F000000000700070000EB
:100BCD00147F142A1400242A7F2A12006264081349
:100BDD002300364955205000000503000000001C7D
:100BED00224100000022411C000014083E081400A0
:100BFD0008083E0808000000A0600000080808086A
:100C0D0008000060600000002010050402003E5145
:100C1D0049453E0000427F40000042615149460077
:100C2D002141454B31001814127F100027454545D1
:100C3D0039003C4A49493000017109050300364924
:100C4D0049493600064949291E0000363600000084
:100C5D00005636000000081422410000141414142C
:100C6D001400004122140800020151090600324906
:100C7D0059513E007C1211127C007F4949493600C2
:100C8D003E41414122007F4141221C007F4949499B
:100C9D0041007F09090901003E4149497A007F0859
:100CAD0008087F0000417F4100002040413F0100C6
:100CBD007F08142241007F40404040007F020C021B
:100CCD007F007F0408107F003E4141413E007F09B7
:100CDD00090906003E4151215E007F0919292600B0
:100CED0046494949310001017F0101003F40404023
:100CFD003F001F2040201F003F4038403F0063143D
:100D0D000814630007087008070061514945430046
:100D1D00007F41410000552A552A55000041417F71
:100D2D000000040201020400404040404000000168
:100D3D00020400002054545478007F484444380085
:100D4D00384444442000384444487F0038545454B7
:100D5D001800087E0901020018A4A4A47C007F08D5
:100D6D000404780000447D4000004080847D000034
:100D7D007F10284400007C04180478007C080404CB
:100D8D007800384444443800FC24242418001824E6
:100D9D002418FC007C080404080048545454200016
:100DAD00043F444020003C4040207C001C2040205B
:100DBD001C003C4030403C004428102844001CA03E
:100DCD00A0A07C004464544C441414141414140056
:050DDD00000000000011
:0E125500E4FFFE0FBF00010EBE03F8BFE8F578
:011263002268
:10106900C280121255D280C281121255D281121237
:1010790055E4FD7F21121117E4FD7FC8121117E411
:10108900FD7F06121117E4FD7F13121117E4FD7F8E
:101099002012111712113BE4FD7F0C121117C281A6
:0110A9002224
:10113B00E4FD7F0C121117E4FD7F80121117E4F50B
:10114B0009F50A7D01E4FF121117050AE50A700281
:0B115B000509C394F8E509940140E881
:011166002266
:10122E008F13ED4440FFE4FD121117E5134480FFC8
:05123E00E4FD021117A0
:021167008F0CEB
:1011690074E0250CF50CE4F50D75F006E50CA424E6
:10117900BAF582E5F0340BF583E582250D12110BE2
:09118900050DE50DC3940640E0DC
:01119200223A
:0410DB007BFFE4FFB4
:1010DF008B098A0A890BEF75F006A4FF12122EAB4B
:1010EF0009AA0AA90B120ABDFF6010121167740139
:0C10FF00250BF50BE4350AF50A80E4220D
:040F42007A007F09A9
:080F46008F0B8D0C8A0D8B0E40
:100F4E00E51015107002150FAE0FAF107C007D0668
:100F5E00120AD68E0F8F10E50B75F006A4F50BE571
:100F6E000E450D603DAE0DAF0E7C007D0A120B3DA1
:100F7E008C118D12E50B2510FFAD0C12122EAF1237
:100F8E00AE111210AA74FA2510F51074FF350FF574
:100F9E000FAE0DAF0E7C007D0A120B3D8E0D8F0E27
:020FAE0080BD04
:010FB000221E
:0C110B00F582E43583F583E493FF7D0159
:10111700C281ED7004C2828002D282E4FEEF30E722
:1011270004D2838002C283C284EF25E0FFD2840EFB
:03113700BE08EA05
:01113A002292
:0410AA008E138F14FE
:1010AE0074102514F514E43513F513E4FC900BBA03
:1010BE0075F006E514120B81E51375F006A4258371
:0C10CE00F583E5822C12110B0CBC06E12E
:0110DA0022F3
:1011FA00EF1FAA0670011E4A6013E4FCFDC3ED94BA
:0D120A007DEC940050EA0DBD00010C80F059
:0112170022B4
:1011DB00C2907F647E00EF1F70011EEF4E70F7D23E
:0E11EB00907E007F04EF1F70011EEF4E70F724
:0111F90022D3
:101218002090FDA290B340FB7F047E00EF1F700179
:051228001EEF4E70F7FF
:01122D00229E
:10119300C2900FBF0000D2900FBF00000FBF00002E
:1011A300A29092007E007F08EF1F70011EEF4E7029
:0311B300F7A200A0
:0111B6002216
:1011B700E4FDFBFA121193E433FFC4333333548055
:1011C700FEEDC3134EFD0BBB00010AEB64084A702A
:0311D700E3AF057E
:0111DA0022F2
:0F1012001211DB1212187F017E001211FA7FCC2F
:10102100E4FEEF139200EFC313FF30001BC2900BDD
:10103100BB00000BBB0000D2907A007B08EB1B7059
:10104100011AEB4A70F7801BC2907A007B08EB1BF8
:1010510070011AEB4A70F7D2900BBB00010A0BBB6F
:0710610000010A0EBE08BBEE
:011068002265
:081270001210127F440210214C
:081278001210127FBE021021CA
:100FB1001212781211B7A9071211B7EFFEE9FF8ECD
:100FC100098F0AAC09AD0AEC120A03E4FBFA798035
:100FD100783D1208F88F0E8E0D8D0C8C0BE4FFFE00
:100FE1007DC87C42AB0EAA0DA90CA80B1208F8D340
:100FF100E50A9400E50964809480E4FBFAF9400471
:10100100783F800278BF120807120A3C8E098F0AC6
:0110110022BC
:100EB5001212438E098F0A7C037DE8120AE8AB07FC
:100EC500AA06750F007510017D047F09120F46AE45
:100ED50009AF0A7C037DE8120AE87E007F64CFCD66
:100EE500CFCECCCE120AE8AA06AB07750F00751057
:100EF500017D047F0A120F46AE09AF0A7C007D64AE
:100F0500120AE87E007F0ACFCDCFCECCCE120AE8FA
:100F1500AA06AB07750F007510017D047F0C120F33
:100F250046AE09AF0A7C007D0A120AE8AA04AB05A1
:0D0F3500750F007510017D047F0D020F4641
:060DE20012106912113B22
:100DE8007BFF7A0B798DE4FD7F031210DF7A0B7994
:100DF800957D021210DB750F007510027B1F7A00BB
:100E08007D027F05120F467BFF7A0B799B7D027F5F
:100E1800071210DF750F007510027B2B7A007D0218
:100E28007F08120F467A0B799D7D041210DB7BFF39
:100E38007A0B79A77D03E4FF1210DF750F00751098
:100E4800027B617D03120F427BFF7A0B79B17D042F
:100E58007F0B1210DF7BFF7A0B79B37D05E4FF125D
:100E680010DF750F007510027B0D7A007D057F0677
:100E7800120F467BFF7A0B799B7D057F081210DFE6
:100E8800750F007510027B237D05120F42120FB1FA
:100E98008E158F16121270E4F508AF16AE15120EE5
:0D0EA800B50508E508C3942840F0020DE8E8
:10080000020AA8E86480F8E933E83360110460F074
:10081000ED33EC337009E8FCE9FDEAFEEBFF22045E
:1008200060DED3EB9FEA9EE99DE8C2E78CF0C2F759
:1008300095F0400CE8CCF8E9CDF9EACEFAEBCFFB25
:10084000120A7385D0F05804700320D5B3E8047001
:10085000075002B2D5020AB292D5EC0460F7E4CC9C
:10086000C0E0C398F8603B94186008400DD0E0FBEE
:10087000020A8AE4FBFAC9FC8028E830E406E4C9ED
:10088000FBE4CAFCE830E305E4C9CACBFCE8540742
:100890006010F8C3E913F9EA13FAEB13FBEC13FC4D
:1008A000D8F130F52FC3E49CFCEF9BFFEE9AFEEDF0
:1008B00099FDD0E0FBEF4E4D4C701222DB03020A93
:1008C000AFEC2CFCEF33FFEE33FEED33FDED30E704
:1008D000EB020A8AEF2BFFEE3AFEED39FDD0E0FB8A
:1008E00050130BBB0003020AB2ED13FDEE13FEEF33
:0808F00013FFEC13FC020A8A5D
:1008F800EC4D6011E8497017ED33EC3304600DE4FA
:10090800FCFFFEFD22E933E8330470F8020AA8125E
:100918000A7358046009E4CC24815006285009025F
:100928000AB2284003020AAFC0E0EB4A7044B9801B
:1009380006D0E0FB020A9EEF4E701CBD8008EBFF5C
:10094800EAFEE9FD80EBE98DF0A4FEE5F00209E19D
:10095800E9CDF9EAFEEBFFEF89F0A4FCE5F0CE89DA
:10096800F0A42EFFE435F0CD89F0A42DFEE435F097
:100978008067EF4E7005BD80D780C3EF8BF0A4ACC5
:10098800F0EE8BF0A42CFCE435F0F8EF8AF0A42C00
:10099800E5F038FCE433CB8DF0A42CFCE5F03BF813
:1009A800EE8AF0A42CFCE5F038F8E433CF89F0A403
:1009B8002CFCE5F038CF3400CE89F0A42FFFE5F009
:1009C8003EFEE433C98DF0A42EFEE5F039CD8AF061
:1009D800A42FFFE5F03EFEE43DFD33D0E0FB5007D9
:1009E8000BBB000F020AB2EC2CFCEF33FFEE33FE18
:0609F800ED33FD020A8A46
:1009FE0075F020800E75F010800575F0087D007E74
:100A0E00007F003392D530D503120B73EC334010B8
:100A1E00EF33FFEE33FEED33FDEC33FCD5F0ED227C
:0E0A2E00E5F0247EA2D513CC92E7CDCEFF22B8
:100A3C00EDD2E7CD33EC3392D524814006E4FFFEB2
:100A4C00FDFC22FCE4CFCECDCC24E0501174FF8011
:100A5C00EDC3CC13CCCD13CDCE13CECF13CF0470AE
:070A6C00F030D5DE020B7330
:100A7300E9D2E7C933E833F892D5EDD2E7CD33ECC9
:070A830033FC5002B2D52242
:100A8A00EC30E7100FBF000C0EBE00080DBD0004CD
:100A9A000BEB6014A2D5EB13FCED92E7FD2274FF79
:100AAA00FCFDFEFF22E480F8A2D574FF13FC7D80D2
:030ABA00E480EFE6
:100ABD00BB010689828A83E0225002E722BBFE0237
:090ACD00E32289828A83E493226A
:100AD600EF8DF0A4A8F0CF8CF0A428CE8DF0A42E34
:020AE600FE22EE
:100AE800BC000BBE0029EF8DF084FFADF022E4CCF2
:100AF800F875F008EF2FFFEE33FEEC33FCEE9DECBB
:100B0800984005FCEE9DFE0FD5F0E9E4CEFD22ED00
:100B1800F8F5F0EE8420D21CFEADF075F008EF2F4A
:100B2800FFED33FD4007985006D5F0F222C398FD3B
:050B38000FD5F0EA22D8
:100B3D00C2D5EC30E709B2D5E4C39DFDE49CFCEED3
:100B4D0030E715B2D5E4C39FFFE49EFE120AE8C359
:100B5D00E49DFDE49CFC8003120AE830D507C3E454
:060B6D009FFFE49EFE2242
:0E0B7300C3E49FFFE49EFEE49DFDE49CFC2293
:0C0B8100A42582F582E5F03583F583227F
:10124300C3EE6480948040028007C3E49FFFE49E62
:02125300FE2279
:00000001FF
