:0300000002104BA0
:0C104B00787FE4F6D8FD75812002109239
:100C8F0057584A5F5043520054494D453D003A0072
:100C9F004E4F572054454D503D0041494D2054452E
:100CAF004D503D002E00434F554E543D0000000067
:100CBF000000000000002F000000000700070000E8
:100CCF00147F142A1400242A7F2A12006264081346
:100CDF002300364955205000000503000000001C7A
:100CEF00224100000022411C000014083E0814009D
:100CFF0008083E0808000000A06000000808080867
:100D0F0008000060600000002010050402003E5142
:100D1F0049453E0000427F40000042615149460074
:100D2F002141454B31001814127F100027454545CE
:100D3F0039003C4A49493000017109050300364921
:100D4F0049493600064949291E0000363600000081
:100D5F000056360000000814224100001414141429
:100D6F001400004122140800020151090600324903
:100D7F0059513E007C1211127C007F4949493600BF
:100D8F003E41414122007F4141221C007F49494998
:100D9F0041007F09090901003E4149497A007F0856
:100DAF0008087F0000417F4100002040413F0100C3
:100DBF007F08142241007F40404040007F020C0218
:100DCF007F007F0408107F003E4141413E007F09B4
:100DDF00090906003E4151215E007F0919292600AD
:100DEF0046494949310001017F0101003F40404020
:100DFF003F001F2040201F003F4038403F0063143A
:100E0F000814630007087008070061514945430043
:100E1F00007F41410000552A552A55000041417F6E
:100E2F000000040201020400404040404000000165
:100E3F00020400002054545478007F484444380082
:100E4F00384444442000384444487F0038545454B4
:100E5F001800087E0901020018A4A4A47C007F08D2
:100E6F000404780000447D4000004080847D000031
:100E7F007F10284400007C04180478007C080404C8
:100E8F007800384444443800FC24242418001824E3
:100E9F002418FC007C080404080048545454200013
:100EAF00043F444020003C4040207C001C20402058
:100EBF001C003C4030403C004428102844001CA03B
:100ECF00A0A07C004464544C441414141414140053
:050EDF0000000000000E
:0314C500011B41C7
:0E14A100E4FFFE0FBF00010EBE03F8BFE8F52A
:0114AF00221A
:10128A00C2801214A1D280C2811214A1D281121476
:10129A00A1E4FD7F21121338E4FD7FC8121338E45C
:1012AA00FD7F06121338E4FD7F13121338E4FD7F25
:1012BA002012133812135CE4FD7F0C121338C2811A
:0112CA002201
:10135C00E4FD7F0C121338E4FD7F80121338E4F5A2
:10136C0009F50A7D01E4FF121338050AE50A70023B
:0B137C000509C394F8E509940140E85E
:011387002243
:10147A008F13ED4440FFE4FD121338E5134480FF57
:05148A00E4FD0213382F
:021388008F0CC8
:10138A0074E0250CF50CE4F50D75F006E50CA424C3
:10139A00BCF582E5F0340CF583E582250D12132C99
:0913AA00050DE50DC3940640E0B9
:0113B3002217
:0412FC007BFFE4FF91
:101300008B098A0A890BEF75F006A4FF12147AABD9
:1013100009AA0AA90B120B5DFF6010121388740151
:0C132000250BF50BE4350AF50A80E422E9
:041163007A007F0986
:081167008F0B8D0C8A0D8B0E1D
:10116F00E51015107002150FAE0FAF107C007D0645
:10117F00120B768E0F8F10E50B75F006A4F50BE5AD
:10118F000E450D603DAE0DAF0E7C007D0A120BDDDE
:10119F008C118D12E50B2510FFAD0C12147AAF12C6
:1011AF00AE111212CB74FA2510F51074FF350FF52E
:1011BF000FAE0DAF0E7C007D0A120BDD8E0D8F0E64
:0211CF0080BDE1
:0111D10022FB
:0C132C00F582E43583F583E493FF7D0136
:10133800C281ED7004C2828002D282E4FEEF30E7FF
:1013480004D2838002C283C284EF25E0FFD2840ED8
:03135800BE08EAE2
:01135B00226F
:0412CB008E138F14DB
:1012CF0074102514F514E43513F513E4FC900CBCDD
:1012DF0075F006E514120C83E51375F006A425834B
:0C12EF00F583E5822C12132C0CBC06E1E8
:0112FB0022D0
:0810D7008F0E8E0D8D0C8C0BA9
:1010DF00E47F20FEFDFCAB12AA11A910A80F120C81
:1010EF0013EC120A9EC004C005C006C0077F007E25
:1010FF00247D747C49AB0EAA0DA90CA80B1208F81D
:10110F00D003D002D001D000120A01120ADC8F1ACC
:10111F008E198D188C17C3E4951AF516E49519F5E9
:10112F001574019518F514E49517F513AB16AF1652
:10113F00AE15AD14FC7808120C708F168E158D1429
:10114F008C1375C8348FCB8BCAD2CCD2CA7598503A
:03115F00E4F5872D
:01116200226A
:0514C0008F99C2992282
:10144600EF1FAA0670011E4A6013E4FCFDC3ED946B
:0D1456007DEC940050EA0DBD00010C80F00B
:011463002266
:10142700C2907F647E00EF1F70011EEF4E70F7D2EF
:0E143700907E007F04EF1F70011EEF4E70F7D5
:011445002284
:101464002090FDA290B340FB7F047E00EF1F70012B
:051474001EEF4E70F7B1
:011479002250
:1013DF00C2900FBF0000D2900FBF00000FBF0000E0
:1013EF00A29092007E007F08EF1F70011EEF4E70DB
:0313FF00F7A20052
:0114020022C7
:10140300E4FDFBFA1213DFE433FFC43333335480B8
:10141300FEEDC3134EFD0BBB00010AEB64084A70DB
:03142300E3AF052F
:0114260022A3
:0F1233001214271214647F017E001214467FCC20
:10124200E4FEEF139200EFC313FF30001BC2900BBA
:10125200BB00000BBB0000D2907A007B08EB1B7036
:10126200011AEB4A70F7801BC2907A007B08EB1BD5
:1012720070011AEB4A70F7D2900BBB00010A0BBB4C
:0712820000010A0EBE08BBCB
:011289002242
:0814B0001212337F44021242C4
:0814B8001212337FBE02124242
:1011D2001214B8121403A907121403EFFEE9FF8ECA
:1011E200098F0AAC09AD0AEC120AA3E4FBFA798072
:1011F200783D1208F88F0E8E0D8D0C8C0BE4FFFEDD
:101202007DC87C42AB0EAA0DA90CA80B1208F8D31C
:10121200E50A9400E50964809480E4FBFAF940044D
:10122200783F800278BF120807120ADC8E098F0A03
:011232002299
:100FBE0012148F8E098F0A7C037DE8120B88AB0703
:100FCE00AA06750F007510017D047F09121167AE18
:100FDE0009AF0A7C037DE8120B887E007F64CFCDBB
:100FEE00CFCECCCE120B88AA06AB07750F007510AC
:100FFE00017D047F0A121167AE09AF0A7C007D6481
:10100E00120B887E007F0ACFCDCFCECCCE120B88AE
:10101E00AA06AB07750F007510017D047F0C121127
:10102E0067AE09AF0A7C007D0A120B88AA04AB05D5
:0D103E00750F007510017D047F0D02116714
:1013B40012148F8E098F0A7C007D64120B888E09AB
:1013C4008F0AE4751280751125F510F50FFFFE7D67
:0B13D400407C411210D7AF0A0214C089
:060EE40012128A12135CD9
:100EEA007BFF7A0C798FE4FD7F031213007A0C7969
:100EFA00977D021212FC750F007510027B1F7A0093
:100F0A007D027F051211677BFF7A0C799D7D027F36
:100F1A0007121300750F007510027B2B7A007D02F1
:100F2A007F081211677A0C799F7D041212FC7BFFED
:100F3A007A0C79A97D03E4FF121300750F0075106E
:100F4A00027B617D031211637BFF7A0C79B37D0406
:100F5A007F0B1213007BFF7A0C79B57D05E4FF1233
:100F6A001300750F007510027B0D7A007D057F0650
:100F7A001211677BFF7A0C799D7D057F0812130099
:100F8A00750F007510027B237D051211631211D2B1
:100F9A008E1C8F1D1214B0E4F508AF1DAE1C120F83
:100FAA00BEAF1DAE1C1213B40508E508C394284051
:040FBA00E9020EEA50
:10080000020B48E86480F8E933E83360110460F0D3
:10081000ED33EC337009E8FCE9FDEAFEEBFF22045E
:1008200060DED3EB9FEA9EE99DE8C2E78CF0C2F759
:1008300095F0400CE8CCF8E9CDF9EACEFAEBCFFB25
:10084000120B1385D0F05804700320D5B3E8047060
:10085000075002B2D5020B5292D5EC0460F7E4CCFB
:10086000C0E0C398F8603B94186008400DD0E0FBEE
:10087000020B2AE4FBFAC9FC8028E830E406E4C94C
:10088000FBE4CAFCE830E305E4C9CACBFCE8540742
:100890006010F8C3E913F9EA13FAEB13FBEC13FC4D
:1008A000D8F130F52FC3E49CFCEF9BFFEE9AFEEDF0
:1008B00099FDD0E0FBEF4E4D4C701222DB03020B92
:1008C0004FEC2CFCEF33FFEE33FEED33FDED30E764
:1008D000EB020B2AEF2BFFEE3AFEED39FDD0E0FBE9
:1008E00050130BBB0003020B52ED13FDEE13FEEF92
:0808F00013FFEC13FC020B2ABC
:1008F800EC4D6011E8497017ED33EC3304600DE4FA
:10090800FCFFFEFD22E933E8330470F8020B4812BD
:100918000B1358046009E4CC2481500628500902BE
:100928000B52284003020B4FC0E0EB4A7044B980D9
:1009380006D0E0FB020B3EEF4E701CBD8008EBFFBB
:10094800EAFEE9FD80EBE98DF0A4FEE5F00209E19D
:10095800E9CDF9EAFEEBFFEF89F0A4FCE5F0CE89DA
:10096800F0A42EFFE435F0CD89F0A42DFEE435F097
:100978008067EF4E7005BD80D780C3EF8BF0A4ACC5
:10098800F0EE8BF0A42CFCE435F0F8EF8AF0A42C00
:10099800E5F038FCE433CB8DF0A42CFCE5F03BF813
:1009A800EE8AF0A42CFCE5F038F8E433CF89F0A403
:1009B8002CFCE5F038CF3400CE89F0A42FFFE5F009
:1009C8003EFEE433C98DF0A42EFEE5F039CD8AF061
:1009D800A42FFFE5F03EFEE43DFD33D0E0FB5007D9
:1009E8000BBB000F020B52EC2CFCEF33FFEE33FE77
:0609F800ED33FD020B2AA5
:1009FE00020B52EC5D046005E859047003020B48CB
:100A0E00120B13580460F6EC4860F2EC7004FDFE15
:100A1E00FF22C860DB2481C85009C39860025006CB
:100A2E00020B4F9850CAF582E9294B4A7005AB82EA
:100A3E00020B3E75F0007C1A7880C3EF9BEE9AEDA8
:100A4E0099400DC3EF9BFFEE9AFEED99FDE842F043
:100A5E00DC23ACF0D0E0FFD0E0FED0E0FDAB822096
:100A6E00E7101BEB60BAEC2CFCEF33FFEE33FEED20
:100A7E0033FD020B2AE803F830E705C0F075F000ED
:100A8E00EF2FFFEE33FEED33FD40B830E7C280AA04
:100A9E0075F020800E75F010800575F0087D007ED3
:100AAE00007F003392D530D503120C62EC33401028
:100ABE00EF33FFEE33FEED33FDEC33FCD5F0ED22DC
:0E0ACE00E5F0247EA2D513CC92E7CDCEFF2218
:100ADC00EDD2E7CD33EC3392D524814006E4FFFE12
:100AEC00FDFC22FCE4CFCECDCC24E0501174FF8071
:100AFC00EDC3CC13CCCD13CDCE13CECF13CF04700E
:070B0C00F030D5DE020C629F
:100B1300E9D2E7C933E833F892D5EDD2E7CD33EC28
:070B230033FC5002B2D522A1
:100B2A00EC30E7100FBF000C0EBE00080DBD00042C
:100B3A000BEB6014A2D5EB13FCED92E7FD2274FFD8
:100B4A00FCFDFEFF22E480F8A2D574FF13FC7D8031
:030B5A00E480EF45
:10105700020EE4E493A3F8E493A34003F68001F2BD
:1010670008DFF48029E493A3F85407240CC8C3339A
:10107700C4540F4420C8834004F456800146F6DF69
:10108700E4800B01020408102040809014C5E47E20
:10109700019360BCA3FF543F30E509541FFEE4935E
:1010A700A360010ECF54C025E060A840B8E493A325
:1010B700FAE493A3F8E493A3C8C582C8CAC583CA50
:1010C700F0A3C8C582C8CAC583CADFE9DEE780BE08
:0114C8000023
:100B5D00BB010689828A83E0225002E722BBFE0296
:090B6D00E32289828A83E49322C9
:100B7600EF8DF0A4A8F0CF8CF0A428CE8DF0A42E93
:020B8600FE224D
:100B8800BC000BBE0029EF8DF084FFADF022E4CC51
:100B9800F875F008EF2FFFEE33FEEC33FCEE9DEC1A
:100BA800984005FCEE9DFE0FD5F0E9E4CEFD22ED60
:100BB800F8F5F0EE8420D21CFEADF075F008EF2FAA
:100BC800FFED33FD4007985006D5F0F222C398FD9B
:050BD8000FD5F0EA2238
:100BDD00C2D5EC30E709B2D5E4C39DFDE49CFCEE33
:100BED0030E715B2D5E4C39FFFE49EFE120B88C318
:100BFD00E49DFDE49CFC8003120B8830D507C3E413
:060C0D009FFFE49EFE22A1
:100C1300E88FF0A4CC8BF0A42CFCE98EF0A42CFC80
:100C23008AF0EDA42CFCEA8EF0A4CDA8F08BF0A4FE
:100C33002DCC3825F0FDE98FF0A42CCD35F0FCEB5D
:100C43008EF0A4FEA9F0EB8FF0A4CFC5F02ECD3922
:0F0C5300FEE43CFCEAA42DCE35F0FDE43CFC228F
:0E0C6200C3E49FFFE49EFEE49DFDE49CFC22A3
:100C7000E8600FECC313FCED13FDEE13FEEF13FF62
:030C8000D8F12286
:0C0C8300A42582F582E5F03583F583227C
:10148F00C3EE6480948040028007C3E49FFFE49E14
:02149F00FE222B
:00000001FF
