:03000000020AD51C
:0C0AD500787FE4F6D8FD75811A020B1C36
:030C4F00011A4146
:080B61008F0D8E0C8D0B8C0A28
:100B6900E47F20FEFDFCAB11AA10A90FA80E120A02
:100B790065EC1209A6C004C005C006C0077F007E47
:100B8900247D747C49AB0DAA0CA90BA80A12080094
:100B9900D003D002D001D0001209091209E48F193B
:100BA9008E188D178C16C3E49519F515E49518F56B
:100BB9001474019517F513E49516F512AB15AF15D5
:100BC900AE14AD13FC7808120AC28F158E148D135A
:100BD9008C1275C8348FCB8BCAD2CCD2CA759850B7
:030BE900E4F587A9
:010BEC0022E6
:050C4A008F99C2992200
:0B0C3F0030980585991AC298AF1A2260
:100C1900750800750961E4751180751025F50FF5E2
:100C29000EFFFE7D407C41120B61AF09120C4A7F19
:060C3900F47E01020BED48
:100BED00E4FDFCC3ED9FEC9E5021E4FBFA90000068
:100BFD00A3E5826432458370F70BBB00010AEB64F9
:0B0C0D00324A70E90DBD00010C80D8D8
:010C180022B9
:10080000EC4D6011E8497017ED33EC3304600DE4F2
:10081000FCFFFEFD22E933E8330470F8020A5012AF
:100820000A1B58046009E4CC2481500628500902B0
:100830000A5A284003020A57C0E0EB4A7044B980C4
:1008400006D0E0FB020A46EF4E701CBD8008EBFFAD
:10085000EAFEE9FD80EBE98DF0A4FEE5F00208E98F
:10086000E9CDF9EAFEEBFFEF89F0A4FCE5F0CE89D3
:10087000F0A42EFFE435F0CD89F0A42DFEE435F090
:100880008067EF4E7005BD80D780C3EF8BF0A4ACBE
:10089000F0EE8BF0A42CFCE435F0F8EF8AF0A42CF9
:1008A000E5F038FCE433CB8DF0A42CFCE5F03BF80C
:1008B000EE8AF0A42CFCE5F038F8E433CF89F0A4FC
:1008C0002CFCE5F038CF3400CE89F0A42FFFE5F002
:1008D0003EFEE433C98DF0A42EFEE5F039CD8AF05A
:1008E000A42FFFE5F03EFEE43DFD33D0E0FB5007D2
:1008F0000BBB000F020A5AEC2CFCEF33FFEE33FE69
:06090000ED33FD020A3296
:10090600020A5AEC5D046005E859047003020A50B5
:10091600120A1B580460F6EC4860F2EC7004FDFE07
:10092600FF22C860DB2481C85009C39860025006C4
:10093600020A579850CAF582E9294B4A7005AB82DC
:10094600020A4675F0007C1A7880C3EF9BEE9AED9A
:1009560099400DC3EF9BFFEE9AFEED99FDE842F03C
:10096600DC23ACF0D0E0FFD0E0FED0E0FDAB82208F
:10097600E7101BEB60BAEC2CFCEF33FFEE33FEED19
:1009860033FD020A32E803F830E705C0F075F000DF
:10099600EF2FFFEE33FEED33FD40B830E7C280AAFD
:1009A60075F020800E75F010800575F0087D007ECC
:1009B600007F003392D530D503120AB4EC334010D1
:1009C600EF33FFEE33FEED33FDEC33FCD5F0ED22D5
:0E09D600E5F0247EA2D513CC92E7CDCEFF2211
:1009E400EDD2E7CD33EC3392D524814006E4FFFE0B
:1009F400FDFC22FCE4CFCECDCC24E0501174FF806A
:100A0400EDC3CC13CCCD13CDCE13CECF13CF047006
:070A1400F030D5DE020AB448
:100A1B00E9D2E7C933E833F892D5EDD2E7CD33EC21
:070A2B0033FC5002B2D5229A
:100A3200EC30E7100FBF000C0EBE00080DBD000425
:100A42000BEB6014A2D5EB13FCED92E7FD2274FFD1
:100A5200FCFDFEFF22E480F8A2D574FF13FC7D802A
:030A6200E480EF3E
:100AE100020C19E493A3F8E493A34003F68001F206
:100AF10008DFF48029E493A3F85407240CC8C33316
:100B0100C4540F4420C8834004F456800146F6DFE4
:100B1100E4800B0102040810204080900C4FE47E19
:100B2100019360BCA3FF543F30E509541FFEE493D9
:100B3100A360010ECF54C025E060A840B8E493A3A0
:100B4100FAE493A3F8E493A3C8C582C8CAC583CACB
:100B5100F0A3C8C582C8CAC583CADFE9DEE780BE83
:010C520000A1
:100A6500E88FF0A4CC8BF0A42CFCE98EF0A42CFC30
:100A75008AF0EDA42CFCEA8EF0A4CDA8F08BF0A4AE
:100A85002DCC3825F0FDE98FF0A42CCD35F0FCEB0D
:100A95008EF0A4FEA9F0EB8FF0A4CFC5F02ECD39D2
:0F0AA500FEE43CFCEAA42DCE35F0FDE43CFC223F
:0E0AB400C3E49FFFE49EFEE49DFDE49CFC2253
:100AC200E8600FECC313FCED13FDEE13FEEF13FF12
:030AD200D8F12236
:00000001FF
